S00B000050574D2E7372656325
S11300000C942A000C943C000C943C000C943C008E
S11300100C943C000C943C000C943C000C943C006C
S11300200C9453000C943C000C943C000C943C0045
S11300300C943C000C943C000C943C000C943C004C
S11300400C943C000C943C000C943C000C943C003C
S11300500C943C0011241FBECFE5D4E0DEBFCDBF1D
S113006020E0A0E6B0E001C01D92A436B207E1F79B
S11300700E943E000C949E000C9400008FB583688F
S11300808FBD8EB589608EBD1BBC1ABC80E281BB5E
S113009084E089BF789485B7806485BF889585B7E7
S11300A08F7B85BFF8CF1F920F920FB60F9211244A
S11300B02F938F939F93809160008F5F8093600054
S11300C08A30A1F580916100882319F0813031F5DF
S11300D014C0809162009091630004969093630031
S11300E08093620080916200909163008F3F9340FF
S11300F0A8F081E08093610011C08091620090912A
S1130100630004979093630080936200809162007F
S113011090916300892B11F4109261008091620028
S1130120909163009BBD8ABD109260009F918F9156
S11301302F910F900FBE0F901F901895F894FFCF3A
S9030000FC
