:100000000C942A000C9434000C9434000C943400AA
:100010000C9434000C9434000C9434000C94340090
:100020000C9434000C9434000C9434000C94340080
:100030000C9434000C9434000C9434000C94340070
:100040000C9434000C9434000C9434000C94340060
:100050000C94340011241FBECFE5D4E0DEBFCDBF29
:100060000E9446000C9465000C94000087B3806BDE
:1000700087BB88B38F7488BB83E58DB908958FB92A
:10008000779BFECF0895C59AC59808950E943600C3
:1000900085E50E943F000E9443002FEF89E698E12A
:1000A000215080409040E1F700C000008AEA0E94A1
:1000B0003F000E9443002FEF89E698E121508040E5
:0E00C0009040E1F700C00000E3CFF894FFCFBE
:00000001FF
