S020000053686966742052656773697465722037207365676D656E742E7372656337
S11300000C942A000C9434000C9434000C943400A6
S11300100C9434000C9434000C9434000C9434008C
S11300200C9434000C9434000C9434000C9434007C
S11300300C9434000C9434000C9434000C9434006C
S11300400C9434000C9434000C9434000C9434005C
S11300500C94340011241FBECFE5D4E0DEBFCDBF25
S11300600E9446000C94AE000C94000087B3806B91
S113007087BB88B38F7488BB83E58DB908958FB926
S1130080779BFECF0895C49AC49808950E943600C1
S1130090C4988FEC0E943F000E9443002FE986E839
S11300A091E0215080409040E1F700C000008FEFC4
S11300B00E943F000E94430087EA91E60197F1F70E
S11300C000C0000086E80E943F000E9443009FE9B0
S11300D026E881E0915020408040E1F700C0000014
S11300E08FEF0E943F000E94430087EA91E6019748
S11300F0F1F700C0000086E80E943F000E94430020
S11301009FE926E881E0915020408040E1F700C05B
S113011000008FEF0E943F000E94430087EA91E6AF
S11301200197F1F700C0000086E80E943F000E949A
S113013043009FE926E881E0915020408040E1F7A8
S113014000C000008FEF0E943F000E94430087EA36
S113015091E60197F1F700C000009BCFF894FFCF20
S9030000FC
