S0240000524742204C454420636F6C6F72206368616E67657220627574746F6E2E737265633D
S11300000C942A000C943C000C943C000C943C008E
S11300100C943C000C943C000C943C000C943C006C
S11300200C943C000C943C000C943C000C943C005C
S11300300C943C000C943C000C943C000C943C004C
S11300400C943C000C943C000C943C000C943C003C
S11300500C943C0011241FBECFE5D4E0DEBFCDBF1D
S113006020E0A0E6B0E001C01D92A136B207E1F79E
S11300700E943E000C947E000C940000BD98B89A37
S1130080B99ABA9ADD9ACD9B0BC0809160008630F4
S113009019F410926000F7CF8F5F80936000F3CF64
S11300A0809160008230B1F028F4882349F08130D7
S11300B011F50BC08430B9F090F08530E1F417C02D
S11300C0C09A88B3897F88BBDECF88B38A7F88BB18
S11300D0C19AD9CF88B38C7F88BBC29AD4CFC29837
S11300E088B3836088BBC09888B3866088BBC19896
S11300F088B3856088BB88B388BBC5CFF894FFCF2D
S9030000FC
