S00D0000426C696E6B2E7372656327
S11300000C942A000C943C000C943C000C943C008E
S11300100C943C000C943C000C943C000C943C006C
S11300200C943C000C943C000C943C000C943C005C
S11300300C943C000C943C000C943C000C943C004C
S11300400C943C000C943C000C943C000C943C003C
S11300500C943C0011241FBECFE5D4E0DEBFCDBF1D
S113006020E0A0E6B0E001C01D92A136B207E1F79E
S11300700E943E000C9472000C940000BD98B89A43
S1130080B99ABA9ADD9ACD9B13C08FE097E2019793
S1130090F1F700C00000CD9BF6CF80916000823064
S11300A019F410926000EFCF8F5F80936000EBCF64
S11300B080916000813049F018F0823081F40AC0E8
S11300C0C09A88B3897F88BBDECF88B38A7F88BB18
S11300D0C19AD9CF88B38C7F88BBC29AD4CF88B356
S10B00E088BBD1CFF894FFCFD7
S9030000FC
