S00D0000426C696E6B2E7372656327
S11300000C942A000C9434000C9434000C943400A6
S11300100C9434000C9434000C9434000C9434008C
S11300200C9434000C9434000C9434000C9434007C
S11300300C9434000C9434000C9434000C9434006C
S11300400C9434000C9434000C9434000C9434005C
S11300500C94340011241FBECFE5D4E0DEBFCDBF25
S11300600E9436000C944A000C94000084B3806C07
S113007084BBAE9AAF988FE39CE90197F1F700C077
S11300800000AF9AAE988FE39CE90197F1F700C0A6
S10B00900000EFCFF894FFCF4C
S9030000FC
